{
  "transactions": [
    {
      "hash": "0xebb32d67ea0c7c7f31571625d78251fc3b7f868d97d9461dcc53003af0cf3ba2",
      "transactionType": "CALL",
      "contractName": null,
      "contractAddress": "0x779877a7b0d9e8603169ddbd7836e478b4624789",
      "function": "transferAndCall(address,uint256,bytes)",
      "arguments": [
        "0x9DdfaCa8183c41ad55329BdeeD9F6A8d53168B1B",
        "3000000000000000000",
        "0x8313cecde390651b7dc95c354d7e08a57b9d96c198e6e8274eebbec824e6bc3f"
      ],
      "transaction": {
        "from": "0xdb2869b1e6c8f795aae6fb040eaac49016dd52a9",
        "to": "0x779877a7b0d9e8603169ddbd7836e478b4624789",
        "gas": "0x1c1ff",
        "value": "0x0",
        "input": "0x4000aea00000000000000000000000009ddfaca8183c41ad55329bdeed9f6a8d53168b1b00000000000000000000000000000000000000000000000029a2241af62c0000000000000000000000000000000000000000000000000000000000000000006000000000000000000000000000000000000000000000000000000000000000208313cecde390651b7dc95c354d7e08a57b9d96c198e6e8274eebbec824e6bc3f",
        "nonce": "0x2",
        "chainId": "0xaa36a7"
      },
      "additionalContracts": [],
      "isFixedGasLimit": false
    }
  ],
  "receipts": [
    {
      "status": "0x1",
      "cumulativeGasUsed": "0xed9fda",
      "logs": [
        {
          "address": "0x779877a7b0d9e8603169ddbd7836e478b4624789",
          "topics": [
            "0xddf252ad1be2c89b69c2b068fc378daa952ba7f163c4a11628f55a4df523b3ef",
            "0x000000000000000000000000db2869b1e6c8f795aae6fb040eaac49016dd52a9",
            "0x0000000000000000000000009ddfaca8183c41ad55329bdeed9f6a8d53168b1b"
          ],
          "data": "0x00000000000000000000000000000000000000000000000029a2241af62c0000",
          "blockHash": "0xb9c19024550f2483f273d3344cd67d5aadf56e6d109a445cac1628d45da41542",
          "blockNumber": "0x971c06",
          "blockTimestamp": "0x694b636c",
          "transactionHash": "0xebb32d67ea0c7c7f31571625d78251fc3b7f868d97d9461dcc53003af0cf3ba2",
          "transactionIndex": "0x49",
          "logIndex": "0x1c6",
          "removed": false
        },
        {
          "address": "0x779877a7b0d9e8603169ddbd7836e478b4624789",
          "topics": [
            "0xe19260aff97b920c7df27010903aeb9c8d2be5d310a2c67824cf3f15396e4c16",
            "0x000000000000000000000000db2869b1e6c8f795aae6fb040eaac49016dd52a9",
            "0x0000000000000000000000009ddfaca8183c41ad55329bdeed9f6a8d53168b1b"
          ],
          "data": "0x00000000000000000000000000000000000000000000000029a2241af62c0000000000000000000000000000000000000000000000000000000000000000004000000000000000000000000000000000000000000000000000000000000000208313cecde390651b7dc95c354d7e08a57b9d96c198e6e8274eebbec824e6bc3f",
          "blockHash": "0xb9c19024550f2483f273d3344cd67d5aadf56e6d109a445cac1628d45da41542",
          "blockNumber": "0x971c06",
          "blockTimestamp": "0x694b636c",
          "transactionHash": "0xebb32d67ea0c7c7f31571625d78251fc3b7f868d97d9461dcc53003af0cf3ba2",
          "transactionIndex": "0x49",
          "logIndex": "0x1c7",
          "removed": false
        },
        {
          "address": "0x9ddfaca8183c41ad55329bdeed9f6a8d53168b1b",
          "topics": [
            "0x1ced9348ff549fceab2ac57cd3a9de38edaaab274b725ee82c23e8fc8c4eec7a",
            "0x8313cecde390651b7dc95c354d7e08a57b9d96c198e6e8274eebbec824e6bc3f"
          ],
          "data": "0x000000000000000000000000000000000000000000000000000000000000000000000000000000000000000000000000000000000000000029a2241af62c0000",
          "blockHash": "0xb9c19024550f2483f273d3344cd67d5aadf56e6d109a445cac1628d45da41542",
          "blockNumber": "0x971c06",
          "blockTimestamp": "0x694b636c",
          "transactionHash": "0xebb32d67ea0c7c7f31571625d78251fc3b7f868d97d9461dcc53003af0cf3ba2",
          "transactionIndex": "0x49",
          "logIndex": "0x1c8",
          "removed": false
        }
      ],
      "logsBloom": "0x00000004000000000000000000000000000000000020000000000000020000000000000000000000000000000000000000000000000000000000000000000000000000000000000000000008000000000000000000000000000028000020000008000000000000000000000000000000000000000000000000000010000240000000000000000000000000010000800000000020000000000000000000000000000000008000000000000000010000000000000000000000200004000002000000000002000000000000000000000000000000000000000100000000000400000010000000000000800000000000000000000000000000000000000000000000",
      "type": "0x2",
      "transactionHash": "0xebb32d67ea0c7c7f31571625d78251fc3b7f868d97d9461dcc53003af0cf3ba2",
      "transactionIndex": "0x49",
      "blockHash": "0xb9c19024550f2483f273d3344cd67d5aadf56e6d109a445cac1628d45da41542",
      "blockNumber": "0x971c06",
      "gasUsed": "0x133b1",
      "effectiveGasPrice": "0x104766",
      "from": "0xdb2869b1e6c8f795aae6fb040eaac49016dd52a9",
      "to": "0x779877a7b0d9e8603169ddbd7836e478b4624789",
      "contractAddress": null
    }
  ],
  "libraries": [],
  "pending": [],
  "returns": {},
  "timestamp": 1766548334256,
  "chain": 11155111,
  "commit": null
}